:100000000C942A000C9447000C9447000C94470071
:100010000C9447000C9447000C9447000C94470044
:100020000C9447000C9447000C9447000C94470034
:100030000C9447000C9447000C9447000C94470024
:100040000C9447000C9447000C9447000C94470014
:100050000C94470011241FBECFE5D8E0DEBFCDBF12
:1000600012E0A0E6B0E0E8EEFCE702C005900D92D9
:10007000A233B107D9F712E0A2E3B2E001C01D92AA
:10008000A239B107E1F70E947B3C0C94723E0C94BC
:100090000000EF92FF920F93DF93CF93CDB7DEB7BF
:1000A00060970FB6F894DEBF0FBECDBFA82F002318
:1000B00009F461C07E010894E11CF11C88E0F7019D
:1000C00011928A95E9F729833A834B835C836D8388
:1000D0007E83AF83988780E2801BE82FFF27E7FDB0
:1000E000F0954D815E816F817885181684F01D86AC
:1000F0001E861F86188A882799278E1B9F0B04C08F
:1001000076956795579547958A95D2F728C0202F01
:10011000332727FD3095DB01CA01022E04C0B695B6
:10012000A795979587950A94D2F78D879E87AF8775
:10013000B88B04C0440F551F661F771FEA95D2F78E
:1001400089819A81AB81BC8104C0B695A7959795AA
:1001500087952A95D2F7482B592B6A2B7B2B4987F9
:100160005A876B877C8729853A854B855C856D85A9
:100170007E85AF8598898A2F60960FB6F894DEBF8A
:100180000FBECDBFCF91DF910F91FF90EF900895FB
:10019000EF92FF920F93DF93CF93CDB7DEB76097C7
:1001A0000FB6F894DEBF0FBECDBFA82F002309F411
:1001B00061C07E010894E11CF11C88E0F7011192F6
:1001C0008A95E9F729833A834B835C836D837E8329
:1001D000AF83988780E2801BE82FFF27E7FDF0952B
:1001E00049815A816B817C81181684F019861A86A0
:1001F0001B861C86882799278E1B9F0B04C0440FE3
:10020000551F661F771F8A95D2F728C0202F3327E6
:1002100027FD3095DB01CA01022E04C0880F991F0B
:10022000AA1FBB1F0A94D2F789879A87AB87BC871E
:1002300004C07695679557954795EA95D2F78D81D5
:100240009E81AF81B88504C0880F991FAA1FBB1F6C
:100250002A95D2F7482B592B6A2B7B2B4D875E872B
:100260006F87788B29853A854B855C856D857E8582
:10027000AF8598898A2F60960FB6F894DEBF0FBEBF
:10028000CDBFCF91DF910F91FF90EF900895EF9246
:10029000FF920F931F937B018C0120E030E040E040
:1002A0005FE40E94530588238CF0C801B70120E069
:1002B00030E040E05FE40E94BF020E9441069B01E3
:1002C000AC01205030404040504806C0C801B70142
:1002D0000E9441069B01AC01B901CA011F910F9117
:1002E000FF90EF900895A0E0B0E0E9E7F1E00C9412
:1002F000C33CDC012B01FA019C91923008F439C116
:10030000EB018881823008F433C1943069F4843081
:1003100009F02FC111969C9111978981981709F4C2
:1003200028C1ABECB0E025C1843009F421C1823092
:10033000A9F4923009F01DC19A01AD0188E0EA01EB
:100340000990AE01E90109929E018150C1F7E201D5
:10035000898111969C918923818308C1923009F487
:1003600007C112962D903C901397EB018A819B81D7
:100370001496AD90BD90CD90DC901797EC80FD80E9
:100380000E811F819101281B390BB90137FF04C071
:1003900066277727621B730B603271050CF061C012
:1003A000121613066CF537014801062E04C0969408
:1003B0008794779467940A94D2F721E030E040E084
:1003C00050E004C0220F331F441F551F6A95D2F717
:1003D00021503040404050402E213F2140235123A6
:1003E000211531054105510521F021E030E040E0C3
:1003F00050E079018A01E628F728082919293CC02C
:10040000232BD1F1260E371E35014601062E04C0DE
:1004100096948794779467940A94D2F721E030E019
:1004200040E050E004C0220F331F441F551F6A955F
:10043000D2F721503040404050402A213B214C21EE
:100440005D21211531054105510521F021E030E004
:1004500040E050E059016A01A628B728C828D928E9
:100460000BC0821593052CF01C01AA24BB24650146
:1004700003C0EE24FF24870111969C91D2011196AE
:100480008C91981709F445C0992339F0A801970178
:100490002A193B094C095D0906C0A60195012E19D0
:1004A0003F09400B510B57FD08C011823382228255
:1004B00024833583468357831DC081E08183338243
:1004C000228288279927DC01821B930BA40BB50B92
:1004D00084839583A683B7830DC0220F331F441FE7
:1004E000551F2483358346835783828193810197E7
:1004F000938382832481358146815781DA01C90142
:100500000197A109B1098F5F9F4FAF4FBF4328F3F8
:100510000BC0918333822282EA0CFB1C0C1D1D1D33
:10052000E482F5820683178383E08083248135810A
:100530004681578157FF1AC0C901AA2797FDA09588
:10054000BA2F81709070A070B0705695479537950E
:100550002795822B932BA42BB52B84839583A6837D
:10056000B78382819381019693838283DF0101C0E7
:10057000D201CD01CDB7DEB7E2E10C94DF3CA0E2C1
:10058000B0E0E5ECF2E00C94CF3C69837A838B8396
:100590009C832D833E834F835887E9E0EE2EF12C18
:1005A000EC0EFD1ECE010196B7010E9432088E01AD
:1005B0000F5E1F4FCE010596B8010E9432088A894E
:1005C00091E089278A8BC701B801AE01475E5F4F72
:1005D0000E9473010E945D07A096E6E00C94EB3C3C
:1005E000A0E2B0E0E6EFF2E00C94CF3C69837A83BE
:1005F0008B839C832D833E834F835887F9E0EF2EB6
:10060000F12CEC0EFD1ECE010196B7010E943208BE
:100610008E010F5E1F4FCE010596B8010E94320871
:10062000C701B801AE01475E5F4F0E9473010E948F
:100630005D07A096E6E00C94EB3CA0E2B0E0E3E2BC
:10064000F3E00C94C33C69837A838B839C832D8372
:100650003E834F835887CE010196BE01675F7F4F6F
:100660000E943208CE010596BE016F5E7F4F0E9448
:1006700032089985923088F089898230C8F09430A8
:1006800019F4823051F404C0843029F4923081F49A
:100690008BEC90E0C6C0923049F420E09A858A89BC
:1006A000981321E02A87CE010996BBC0823049F415
:1006B00020E09A858A89981321E02A8BCE01419601
:1006C000B0C02D843E844F8458886D887E888F8882
:1006D000988CEE24FF248701AA24BB24650140E006
:1006E00050E060E070E0E0E0F0E0C1018170907007
:1006F000892BE9F0E60CF71C081D191D9A01AB01C6
:100700002A0D3B1D4C1D5D1D80E090E0A0E0B0E097
:10071000E614F7040805190520F481E090E0A0E054
:10072000B0E0BA01A901480F591F6A1F7B1FAA0C2C
:10073000BB1CCC1CDD1C97FE08C081E090E0A0E053
:10074000B0E0A82AB92ACA2ADB2A3196E032F1059C
:1007500049F0660C771C881C991C56944794379472
:100760002794C3CFFA85EA892B893C898B859C85A0
:10077000280F391F2E5F3F4F17C0CA01817090703C
:10078000892B61F016950795F794E79480E090E047
:10079000A0E0B0E8E82AF92A0A2B1B2B769567958A
:1007A000579547952F5F3F4F77FDE7CF0CC0440F1C
:1007B000551F661F771F17FD4160EE0CFF1C001FC1
:1007C000111F21503040403090E0590790E06907F8
:1007D00090E4790760F32B8F3C8FDB01CA018F77A0
:1007E0009070A070B07080349105A105B10561F4DE
:1007F00047FD0AC0E114F1040105110529F0405C30
:100800005F4F6F4F7F4F40781A8EFE1711F081E0D7
:100810008A8F4D8F5E8F6F8F78A383E0898FCE0193
:1008200049960E945D07A096E2E10C94DF3CA8E1A6
:10083000B0E0EDE1F4E00C94CB3C69837A838B83E8
:100840009C832D833E834F835887B9E0EB2EF12C98
:10085000EC0EFD1ECE010196B7010E9432088E01FA
:100860000F5E1F4FCE010596B8010E943208298500
:10087000223008F47EC03989323010F4B8017CC0CF
:100880008A859A8989278A87243011F0223031F4A9
:10089000231709F06EC06BEC70E06EC0343039F491
:1008A0001D861E861F86188A1C861B8604C0323051
:1008B00021F484E08987B7015FC02B853C858B8953
:1008C0009C89281B390B3C872B87ED84FE840F8580
:1008D0001889AD88BE88CF88D88CEA14FB040C0533
:1008E0001D0540F4EE0CFF1C001F111F215030406D
:1008F0003C872B8720E030E040E050E080E090E053
:10090000A0E0B0E460E070E0EA14FB040C051D0513
:1009100040F0282B392B4A2B5B2BEA18FB080C09DB
:100920001D09B695A79597958795EE0CFF1C001F9E
:10093000111F6F5F7F4F6F31710531F7DA01C90108
:100940008F779070A070B07080349105A105B105CB
:1009500061F427FD0AC0E114F1040105110529F035
:10096000205C3F4F4F4F5F4F20782D873E874F874A
:10097000588BBE01675F7F4FCB010E945D07689671
:10098000EAE00C94E73CA8E1B0E0E9ECF4E00C9478
:10099000CF3C69837A838B839C832D833E834F83F3
:1009A000588789E0E82EF12CEC0EFD1ECE01019651
:1009B000B7010E9432088E010F5E1F4FCE010596CF
:1009C000B8010E9432088985823040F089898230DE
:1009D00028F0C701B8010E94AA0801C081E068960A
:1009E000E6E00C94EB3CA8E1B0E0E9EFF4E00C9415
:1009F000CF3C69837A838B839C832D833E834F8393
:100A0000588789E0E82EF12CEC0EFD1ECE010196F0
:100A1000B7010E9432088E010F5E1F4FCE0105966E
:100A2000B8010E9432088985823040F0898982307D
:100A300028F0C701B8010E94AA0801C081E06896A9
:100A4000E6E00C94EB3CA8E1B0E0E9E2F5E00C94C0
:100A5000CF3C69837A838B839C832D833E834F8332
:100A6000588789E0E82EF12CEC0EFD1ECE01019690
:100A7000B7010E9432088E010F5E1F4FCE0105960E
:100A8000B8010E9432088985823040F0898982301D
:100A900028F0C701B8010E94AA0801C08FEF68962C
:100AA000E6E00C94EB3CA8E1B0E0E9E5F5E00C945D
:100AB000CF3C69837A838B839C832D833E834F83D2
:100AC000588789E0E82EF12CEC0EFD1ECE01019630
:100AD000B7010E9432088E010F5E1F4FCE010596AE
:100AE000B8010E9432088985823040F089898230BD
:100AF00028F0C701B8010E94AA0801C08FEF6896CC
:100B0000E6E00C94EB3CA8E1B0E0E9E8F5E00C94F9
:100B1000CF3C69837A838B839C832D833E834F8371
:100B2000588789E0E82EF12CEC0EFD1ECE010196CF
:100B3000B7010E9432088E010F5E1F4FCE0105964D
:100B4000B8010E9432088985823040F0898982305C
:100B500028F0C701B8010E94AA0801C081E0689688
:100B6000E6E00C94EB3CA8E1B0E0E9EBF5E00C9496
:100B7000CF3C69837A838B839C832D833E834F8311
:100B8000588789E0E82EF12CEC0EFD1ECE0101966F
:100B9000B7010E9432088E010F5E1F4FCE010596ED
:100BA000B8010E9432088985823040F089898230FC
:100BB00028F0C701B8010E94AA0801C081E0689628
:100BC000E6E00C94EB3CA8E0B0E0E9EEF5E00C9434
:100BD000CC3C9B01AC0183E08983DA01C901882701
:100BE000B7FD83959927AA27BB27B82E2115310574
:100BF0004105510519F482E089833AC08823A9F0A0
:100C0000203080E0380780E0480780E8580729F462
:100C100060E070E080E09FEC30C0EE24FF248701AC
:100C2000E21AF30A040B150B02C079018A018EE166
:100C3000C82ED12CDC82CB82ED82FE820F831887F6
:100C4000C801B7010E940E0701971816190684F40F
:100C5000082E04C0EE0CFF1C001F111F0A94D2F7CF
:100C6000ED82FE820F831887C81AD90ADC82CB82F4
:100C7000BA82CE0101960E945D072896E9E00C94A5
:100C8000E83CACE0B0E0E7E4F6E00C94D33C6983E8
:100C90007A838B839C83CE010196BE016B5F7F4F6D
:100CA0000E9432088D81823061F1823050F18430AF
:100CB00021F48E81882351F12EC02F81388537FD94
:100CC00020C06E812F3131051CF06623F9F023C05E
:100CD0008EE190E0821B930B29853A854B855C85DC
:100CE00004C056954795379527958A95D2F7662380
:100CF000B1F050954095309521953F4F4F4F5F4F44
:100D00000EC020E030E040E050E009C02FEF3FEFA0
:100D10004FEF5FE704C020E030E040E050E8B90169
:100D2000CA012C96E2E00C94EF3CA8E0B0E0EBE9BD
:100D3000F6E00C94CB3C7B018C01611571058105BB
:100D4000910519F482E0898360C083E089838EE194
:100D5000C82ED12CDC82CB82ED82FE820F831887D5
:100D6000C801B7010E940E07FC013197F7FF3BC095
:100D7000222733272E1B3F0B57016801022E04C088
:100D8000D694C794B794A7940A94D2F740E050E061
:100D900060E070E081E090E0A0E0B0E004C0880F87
:100DA000991FAA1FBB1F2A95D2F70197A109B10964
:100DB0008E219F21A023B1230097A105B10521F029
:100DC00041E050E060E070E04A295B296C297D2910
:100DD0004D835E836F8378878EE190E08E1B9F0B3F
:100DE0009C838B8312C0309781F00E2E04C0EE0CD2
:100DF000FF1C001F111F0A94D2F7ED82FE820F83A1
:100E00001887CE1ADF0ADC82CB821A82CE010196C5
:100E10000E945D072896EAE00C94E73CEF92FF926F
:100E20000F931F937B018C0180E0E81680E0F806A9
:100E300081E0080780E0180788F48FEFE816F104D6
:100E40000105110531F028F088E090E0A0E0B0E065
:100E500017C080E090E0A0E0B0E012C080E0E816AB
:100E600080E0F80680E0080781E0180728F088E1B4
:100E700090E0A0E0B0E004C080E190E0A0E0B0E04D
:100E800020E230E040E050E0281B390B4A0B5B0BBE
:100E900004C016950795F794E7948A95D2F7F70161
:100EA000ED52FF4F8081281B310941095109C901C9
:100EB0001F910F91FF90EF900895DF92EF92FF92B4
:100EC0000F931F93FC01E480F58006811781D18088
:100ED0008081823048F480E090E0A0E1B0E0E82A30
:100EE000F92A0A2B1B2BA5C0843009F49FC082303D
:100EF00021F4EE24FF24870105C0E114F10401056B
:100F0000110519F4E0E0F0E096C0628173819FEF73
:100F1000623879070CF05BC022E83FEF261B370BE5
:100F20002A3131052CF020E030E040E050E02AC0CA
:100F3000B801A701022E04C076956795579547958D
:100F40000A94D2F781E090E0A0E0B0E004C0880FFE
:100F5000991FAA1FBB1F2A95D2F70197A109B109B2
:100F60008E219F21A023B1230097A105B10521F077
:100F700081E090E0A0E0B0E09A01AB01282B392B92
:100F80004A2B5B2BDA01C9018F779070A070B0708B
:100F900080349105A105B10539F427FF09C0205C13
:100FA0003F4F4F4F5F4F04C0215C3F4F4F4F5F4F4C
:100FB000E0E0F0E02030A0E03A07A0E04A07A0E43B
:100FC0005A0710F0E1E0F0E079018A0127C06038AB
:100FD000710564F5FB01E158FF4FD801C7018F7718
:100FE0009070A070B07080349105A105B10539F4FE
:100FF000E7FE0DC080E490E0A0E0B0E004C08FE325
:1010000090E0A0E0B0E0E80EF91E0A1F1B1F17FFDA
:1010100005C016950795F794E794319687E01695E5
:101020000795F794E7948A95D1F705C0EE24FF243D
:101030008701EFEFF0E06E2F679566276795902F99
:101040009F77D794DD24D7948E2F8695492F462BF2
:10105000582F5D29B701CA011F910F91FF90EF90A2
:10106000DF900895FC01DB01408151812281622FD4
:101070006F7770E0221F2227221F9381892F880F0C
:10108000822B282F30E0991F9927991F11969C9346
:10109000119721153105A9F5411551056105710516
:1010A00011F482E037C082E89FEF13969C938E93F1
:1010B00012979A01AB0167E0220F331F441F551F9F
:1010C0006A95D1F783E08C930DC0220F331F441F24
:1010D000551F12968D919C911397019713969C938F
:1010E0008E931297203080E0380780E0480780E434
:1010F000580758F314962D933D934D935C9317978F
:1011000008952F3F310579F44115510561057105A9
:1011100019F484E08C93089564FF03C081E08C93FC
:1011200012C01C9210C02F57304013963C932E9340
:10113000129783E08C9387E0440F551F661F771F3B
:101140008A95D1F7706414964D935D936D937C935B
:10115000179708951F93DC01FB019C91923008F4CE
:1011600047C08081823008F443C0943051F4119616
:101170001C91843099F58181682F70E0611B7109A1
:101180003FC0843021F0923031F48230B9F1818156
:10119000882389F12DC011961C9111978230F1F0AE
:1011A00081811817D9F412962D913C911397828161
:1011B00093818217930794F028173907BCF014968F
:1011C0008D919D910D90BC91A02D248135814681FA
:1011D0005781281739074A075B0718F4112341F094
:1011E0000AC082179307A407B50740F4112319F02A
:1011F00061E070E005C06FEF7FEF02C060E070E07B
:10120000CB011F910895DF93CF93CDB7DEB76297DF
:101210000FB6F894DEBF0FBECDBF6D837E838F8384
:10122000988749878985882349F480E090E0A0E881
:10123000BFE38E879F87A88BB98B6FC0898581306C
:1012400049F48D819E81AF81B8858E879F87A88B59
:10125000B98B63C089858823DCF48985282F219583
:101260008D819E81AF81B885BC01CD01422F0E9446
:1012700003099B01AC0160E070E080E89FE30E94FD
:101280001704DC01CB018E879F87A88BB98B45C0E3
:101290006D817E818F8198852D813E814F8158851A
:1012A0000E941D03DC01CB018A879B87AC87BD8729
:1012B00089858A8B9A8999231CF4AA89AF5FAA8BA6
:1012C0008A898595282F6A857B858C859D85422F07
:1012D0000E940309DC01CB0189839A83AB83BC8321
:1012E00089858170882349F489819A81AB81BC8189
:1012F0008E879F87A88BB98B10C06D817E818F816F
:10130000988529813A814B815C810E941D03DC0113
:10131000CB018E879F87A88BB98B8E859F85A889E7
:10132000B989BC01CD0162960FB6F894DEBF0FBE3D
:10133000CDBFCF91DF910895DF93CF93CDB7DEB7C7
:101340006B970FB6F894DEBF0FBECDBF6A8B7B8B59
:101350008C8B9D8B10C06A897B898C899D892BED34
:101360003FE049EC50E40E94F002DC01CB018A8BA3
:101370009B8BAC8BBD8B6A897B898C899D892BED7E
:101380003FE049E450EC0E948305882324F310C019
:101390006A897B898C899D892BED3FE049EC50E47B
:1013A0000E94BF02DC01CB018A8B9B8BAC8BBD8B77
:1013B0006A897B898C899D892BED3FE049E450E463
:1013C0000E942305181624F3198A1B8E6A897B89CB
:1013D0008C899D8924EE3BEC46E950E40E9423056C
:1013E000181614F421E02B8F81E03B8D832788238E
:1013F00061F46A897B898C899D892BED3FE049ECFA
:1014000050E40E948305882304F11A8E6A897B893F
:101410008C899D8920E030E040E050E00E94830507
:10142000882314F441E04A8F81E05A8D8527882370
:10143000F1F46A897B898C899D892BED3FE049EC29
:101440005FEB0E945305882394F06A897B898C891D
:101450009D892BED3FE049EC50E40E94F002DC0155
:10146000CB018A8B9B8BAC8BBD8B82E0898B6A898D
:101470007B898C899D8920E030E040E050E00E942B
:1014800023051816F4F46A897B898C899D892BEDD4
:101490003FE049EC5FE30E948305882394F46BED01
:1014A0007FE089E490E42A893B894C895D890E9428
:1014B000BF02DC01CB018A8B9B8BAC8BBD8B81E0A7
:1014C000898B80E090E0A0E8BFE38D879E87AF879F
:1014D000B88B80E090E0A0E8BFE389879A87AB876C
:1014E000BC876A897B898C899D892A893B894C893B
:1014F0005D890E941D03DC01CB018D839E83AF8338
:10150000B8878FEF9FEF9C838B8382E090E09A8374
:1015100089835FC089819A819C01215030408981F3
:101520009A81DC012A9FC0012B9F900D3A9F900D5C
:101530001124AA2797FDA095BA2FBC01CD010E94C6
:10154000E3059B01AC016D817E818F8198850E94AE
:101550001704DC01CB019C01AD0169857A858B857F
:101560009C850E941D03DC01CB0189879A87AB878C
:10157000BC878B819C81AA2797FDA095BA2FBC01BF
:10158000CD010E94E305DC01CB01BC01CD01298521
:101590003A854B855C850E941D03DC01CB019C01D3
:1015A000AD016D857E858F8598890E94F002DC01F2
:1015B000CB018D879E87AF87B88B8B819C8190955F
:1015C00081959F4F9C838B8389819A8102969A8310
:1015D000898389819A81853191050CF49BCF6D8532
:1015E0007E858F85988927E137EB41ED58EB0E9486
:1015F00023051816ACF46D857E858F85988927E1C3
:1016000037EB41ED58E30E94830588234CF420E03A
:1016100030E040E050E02E8B3F8B488F598F17C051
:101620008989813061F48D859E85AF85B8899C015B
:10163000AD0150582E8B3F8B488F598F08C08D8538
:101640009E85AF85B8898E8B9F8BA88FB98F8E8929
:101650009F89A88DB98DBC01CD016B960FB6F8940A
:10166000DEBF0FBECDBFCF91DF910895DF93CF9343
:1016700000D000D0CDB7DEB769837A838B839C839B
:1016800069817A818B819C812BED3FE049EC5FE39E
:101690000E94F002DC01CB01BC01CD010E949C093B
:1016A000DC01CB01B058BC01CD010F900F900F9021
:1016B0000F90CF91DF910895EF92FF920F931F93B8
:1016C000DF93CF9300D000D0CDB7DEB769837A83A4
:1016D0008B839C8389819A81AB81BC81BC01CD01C4
:1016E0000E94360B7B018C0189819A81AB81BC8180
:1016F000BC01CD010E949C099B01AC01C801B7014E
:101700000E941704DC01CB01BC01CD010F900F90AA
:101710000F900F90CF91DF911F910F91FF90EF905D
:101720000895EF92FF920F931F93DF93CF93CDB75E
:10173000DEB769970FB6F894DEBF0FBECDBF698BD9
:101740007A8B8B8B9C8B188A1F861E861D866989D7
:101750007A898B899C8920E030E040E050E00E944B
:101760002305181624F481E090E09E878D8780E0A1
:1017700090E0A0E8BFE389879A87AB87BC8780E0C9
:1017800090E0A0E8BFE38D839E83AF83B88780E0BD
:1017900090E0A0E8BFE389839A83AB83BC838D8507
:1017A0009E850097A1F489899A89AB89BC89B05834
:1017B000898B9A8BAB8BBC8B69897A898B899C8945
:1017C00020E030E040E050E00E94F304898F69811E
:1017D0007A818B819C812CEA35EC47E257E30E94A9
:1017E000F002DC01CB017C018D016D817E818F8156
:1017F000988529893A894B895C890E941D03DC01FF
:10180000CB018D839E83AF83B8878F85988901969E
:10181000988B8F878F859889AA2797FDA095BA2FD7
:10182000BC01CD010E94E3059B01AC0169857A856D
:101830008B859C850E941D03DC01CB0189879A87DB
:10184000AB87BC876D817E818F81988529853A859C
:101850004B855C850E941704DC01CB019C01AD0126
:1018600069817A818B819C810E94F002DC01CB012D
:1018700089839A83AB83BC83C801B70129813A81EC
:101880004B815C810E94830588230CF4A0CF8D8559
:101890009E85009789F460E070E080E89FE32981ED
:1018A0003A814B815C810E941704DC01CB018D8B56
:1018B0009E8BAF8BB88F08C089819A81AB81BC8128
:1018C0008D8B9E8BAF8BB88F8D899E89AF89B88D9C
:1018D000BC01CD0169960FB6F894DEBF0FBECDBF37
:1018E000CF91DF911F910F91FF90EF900895DF93BB
:1018F000CF93CDB7DEB764970FB6F894DEBF0FBEB7
:10190000CDBF6D877E878F87988B6D857E858F8510
:10191000988920E030E040E050E00E94B3051816BE
:101920004CF080E090E0A0E0B0E0898B9A8BAB8B2C
:10193000BC8B62C08D859E85AF85B88989879A8763
:10194000AB87BC8780E090E0A0E8BFE38D839E83F7
:10195000AF83B8878DEB97E3A6E8B5E389839A83D5
:10196000AB83BC832AC069857A858B859C852D8154
:101970003E814F8158850E94F002DC01CB01BC0101
:10198000CD0120E030E040E050E40E941704DC018B
:10199000CB0189879A87AB87BC876D857E858F85CC
:1019A000988929853A854B855C850E941704DC015E
:1019B000CB018D839E83AF83B88769857A858B85BC
:1019C0009C852D813E814F8158850E94BF02DC019C
:1019D000CB01BC01CD0129813A814B815C810E9400
:1019E000230518160CF4BFCF89859A85AB85BC8575
:1019F000898B9A8BAB8BBC8B89899A89AB89BC8983
:101A0000BC01CD0164960FB6F894DEBF0FBECDBF0A
:101A1000CF91DF910895DF93CF9300D000D00F9244
:101A2000CDB7DEB79B838A837D836C83198237C0F1
:101A30008A819B818F7090708A30910590F48981A2
:101A4000282F30E08FE090E0821B930B9C018C816B
:101A50009D81FC01E20FF31F8A818F70805D80837E
:101A600011C08981282F30E08FE090E0821B930B1A
:101A70009C018C819D81FC01E20FF31F8A818F7094
:101A8000895C80838A819B81929582958F7089275A
:101A90009F7089279B838A8389818F5F89838A814D
:101AA0009B81009729F60F900F900F900F900F9049
:101AB000CF91DF910895DF93CF9300D000D00F92A4
:101AC000CDB7DEB79B838A837D836C8319821EC06A
:101AD0008981282F30E08FE090E0821B930B9C01DE
:101AE0008C819D81FC01E20FF31F8A818770805DEC
:101AF00080838A819B819695879596958795969503
:101B000087959B838A8389818F5F89838A819B8163
:101B10000097F1F60F900F900F900F900F90CF91CC
:101B2000DF910895DF93CF9300D000D00F92CDB70F
:101B3000DEB79B838A837D836C8319821AC0898177
:101B4000282F30E08FE090E0821B930B9C018C816A
:101B50009D81FC01E20FF31F8A818170805D80838B
:101B60008A819B81969587959B838A8389818F5FE4
:101B700089838A819B81009711F70F900F900F90B6
:101B80000F900F90CF91DF910895DF93CF9300D006
:101B900000D00F92CDB7DEB79D838C831B821A8253
:101BA00036C0EC81FD81808189838C819D81019685
:101BB0009D838C838981803338F089818A3320F436
:101BC00089818053898313C08981813638F0898166
:101BD000873620F489818755898309C089818134BA
:101BE00030F08981873418F48981875389838A8109
:101BF0009B819C0122953295307F3227207F3227AE
:101C00008981882F90E0822B932B9B838A83EC81A0
:101C1000FD818081882329F68A819B810F900F9016
:101C20000F900F900F90CF91DF910895DF93CF9396
:101C300000D000D00F92CDB7DEB79D838C831B827E
:101C40001A821AC0EC81FD81808189838C819D81FB
:101C500001969D838C838A819B819C01220F331F77
:101C6000220F331F220F331F8981882F90E0C097E6
:101C7000822B932B9B838A83EC81FD818081882337
:101C800009F78A819B810F900F900F900F900F9012
:101C9000CF91DF910895DF93CF9300D000D00F92C2
:101CA000CDB7DEB79D838C831B821A8216C0EC8170
:101CB000FD81808189838C819D8101969D838C83A8
:101CC0008A819B819C01220F331F8981882F90E09C
:101CD000C097822B932B9B838A83EC81FD8180812B
:101CE000882329F78A819B810F900F900F900F9086
:101CF0000F90CF91DF910895EF92FF920F931F9372
:101D0000DF93CF9300D000D0CDB7DEB769837A835D
:101D10008B839C8389819A81AB81BC81BC01CD017D
:101D20000E94910B7B018C0189819A81AB81BC81DE
:101D3000B058BC01CD010E94910B9B01AC01C801C0
:101D4000B7010E94BF02DC01CB01BC01CD0120E044
:101D500030E040E050E40E941704DC01CB01BC01FC
:101D6000CD010F900F900F900F90CF91DF911F91A9
:101D70000F91FF90EF900895EF92FF920F931F93B2
:101D8000DF93CF9300D000D0CDB7DEB769837A83DD
:101D90008B839C8389819A81AB81BC81BC01CD01FD
:101DA0000E94910B7B018C0189819A81AB81BC815E
:101DB000B058BC01CD010E94910B9B01AC01C80140
:101DC000B7010E94F002DC01CB01BC01CD0120E093
:101DD00030E040E050E40E941704DC01CB01BC017C
:101DE000CD010F900F900F900F90CF91DF911F9129
:101DF0000F91FF90EF900895EF92FF920F931F9332
:101E0000DF93CF9300D000D0CDB7DEB769837A835C
:101E10008B839C8389819A81AB81BC81BC01CD017C
:101E20000E947C0E7B018C0189819A81AB81BC81EF
:101E3000BC01CD010E94BC0E9B01AC01C801B701E1
:101E40000E941704DC01CB01BC01CD010F900F9063
:101E50000F900F90CF91DF911F910F91FF90EF9016
:101E60000895EF92FF920F931F93DF93CF93CDB717
:101E7000DEB7E0970FB6F894DEBF0FBECDBF6D8F13
:101E80007E8F8F8F98A36D8D7E8D8F8D98A120E092
:101E900034E244E759E40E94530588234CF04BEDAB
:101EA0005FE069EC7FE34DA75EA76FA778ABE9C25F
:101EB0006D8D7E8D8F8D98A120E030E543EC57EC41
:101EC0000E94830588234CF46BED7FE089EC9FEB47
:101ED0006DA77EA78FA798ABD4C28D8D9E8DAF8D39
:101EE000B8A1BF778D8B9E8BAF8BB88F6D897E89A4
:101EF0008F89988D20E030E040E85FE30E94230561
:101F000018168CF460E070E080E89FE32D893E892C
:101F10004F89588D0E941704DC01CB0189A79AA72D
:101F2000ABA7BCA708C08D899E89AF89B88D89A74A
:101F30009AA7ABA7BCA749A55AA56BA57CA5498FB5
:101F40005A8F6B8F7C8F698D7A8D8B8D9C8D298DAF
:101F50003A8D4B8D5C8D0E941D03DC01CB018D837E
:101F60009E83AF83B8876D817E818F8198852D8117
:101F70003E814F8158850E941D03DC01CB0189877A
:101F80009A87AB87BC8789EE90EFA9EAB7EB898B7C
:101F90009A8BAB8BBC8B8FE19BEDA9E6B9E3898370
:101FA0009A83AB83BC8389899A89AB89BC8929854B
:101FB0003A854B855C85BC01CD010F2EF4ECEF2EEC
:101FC000F3E9FF2EF8E90F2FFAEB1F2FF02D0E94F7
:101FD000033DDC01CB01898B9A8BAB8BBC8B898158
:101FE0009A81AB81BC8129853A854B855C85BC0192
:101FF000CD010F2EF6E8EF2EF4EBFF2EFCE70F2FAE
:10200000FBE31F2FF02D0E94033DDC01CB018983F0
:102010009A83AB83BC8389899A89AB89BC892985DA
:102020003A854B855C85BC01CD010F2EF5EDEF2E79
:10203000FAE7FF2EF6E10F2FFCEB1F2FF02D0E9489
:10204000033DDC01CB01898B9A8BAB8BBC8B8981E7
:102050009A81AB81BC8129853A854B855C85BC0121
:10206000CD010F2EF6E8EF2EF5E1FF2EFBE80F2F46
:10207000FCE31F2FF02D0E94033DDC01CB0189837F
:102080009A83AB83BC8389899A89AB89BC8929856A
:102090003A854B855C85BC01CD010F2EF8EBEF2E08
:1020A000F2E9FF2EF3ED0F2FFCEB1F2FF02D0E9416
:1020B000033DDC01CB01898B9A8BAB8BBC8B898177
:1020C0009A81AB81BC8129853A854B855C85BC01B1
:1020D000CD010F2EF0EBEF2EFAE8FF2EFBE00F2FD5
:1020E000FDE31F2FF02D0E94033DDC01CB0189830E
:1020F0009A83AB83BC8389899A89AB89BC892985FA
:102100003A854B855C85BC01CD010F2EFCE6EF2E98
:10211000F2EAFF2EF7E20F2FFDEB1F2FF02D0E94AA
:10212000033DDC01CB01898B9A8BAB8BBC8B898106
:102130009A81AB81BC8129853A854B855C85BC0140
:10214000CD010F2EFAEEEF2EF1E7FF2EFFE30F2F5A
:10215000FDE31F2FF02D0E94033DDC01CB0189839D
:102160009A83AB83BC8389899A89AB89BC89298589
:102170003A854B855C85BC01CD010F2EF7E5EF2E2E
:10218000F9E9FF2EF6E50F2FFDEB1F2FF02D0E9432
:10219000033DDC01CB01898B9A8BAB8BBC8B898196
:1021A0009A81AB81BC8129853A854B855C85BC01D0
:1021B000CD010F2EFAE0EF2EFCEBFF2EF0E70F2FF4
:1021C000FDE31F2FF02D0E94033DDC01CB0189832D
:1021D0009A83AB83BC8389899A89AB89BC89298519
:1021E0003A854B855C85BC01CD010F2EFEE4EF2EB8
:1021F000F4E8FF2EF8E80F2FFDEB1F2FF02D0E94C3
:10220000033DDC01CB01898B9A8BAB8BBC8B898125
:102210009A81AB81BC8129853A854B855C85BC015F
:10222000CD010F2EF9E5EF2EF9E8FF2EFDE90F2F76
:10223000FDE31F2FF02D0E94033DDC01CB018983BC
:102240009A83AB83BC8389899A89AB89BC892D81A8
:102250003E814F815885E980FA800B811C81BC0149
:10226000CD010E94033DDC01CB01898B9A8BAB8BA6
:10227000BC8B89899A89AB89BC892D813E814F812C
:102280005885BC01CD010F2EF1E8EF2EFEE2FF2EA6
:10229000FAEB0F2FFDEB1F2FF02D0E94033DDC0109
:1022A000CB01898B9A8BAB8BBC8B89899A89AB8943
:1022B000BC892D813E814F815885BC01CD010F2EF7
:1022C000F8E3EF2EFEE8FF2EF3EE0F2FFDE31F2FB6
:1022D000F02D0E94033DDC01CB01898B9A8BAB8BE7
:1022E000BC8B89899A89AB89BC892D813E814F81BC
:1022F0005885BC01CD010F2EF5E2EF2EF9E4FF2E3B
:10230000F2E10F2FFEEB1F2FF02D0E94033DDC01A9
:10231000CB01898B9A8BAB8BBC8B89899A89AB89D2
:10232000BC892D813E814F815885BC01CD010F2E86
:10233000FDECEF2EFCECFF2EFCE40F2FFEE31F2F35
:10234000F02D0E94033DDC01CB01898B9A8BAB8B76
:10235000BC8B89899A89AB89BC892D813E814F814B
:102360005885BC01CD010F2EFBEAEF2EFAEAFF2EB5
:10237000FAEA0F2FFEEB1F2FF02D0E94033DDC0128
:10238000CB01898B9A8BAB8BBC8B69897A898B89C2
:102390009C892D813E814F8158850E941D03DC015F
:1023A000CB01298D3A8D4B8D5C8DE98CFA8C0B8D90
:1023B0001C8DBC01CD010E94033DDC01CB01898B4A
:1023C0009A8BAB8BBC8B6D897E898F89988D20E031
:1023D00030E040E85FE30E9423051816CCF48989B9
:1023E0009A89AB89BC897C018D0117FB109517F97F
:1023F00010956AE67DEC8EE69FE327EA3AE847ED22
:102400005FE30E94033D6DA37EA38FA398A708C03E
:1024100069897A898B899C896DA37EA38FA398A7EC
:102420008DA19EA1AFA1B8A58D879E87AF87B88BE0
:1024300088A1282F20788D859E85AF85B889AC012D
:10244000BD017F7749A35AA36BA37CA3222349F044
:1024500069A17AA18BA19CA1905869A37AA38BA3AF
:102460009CA369A17AA18BA19CA120EE3EE245E646
:1024700052E40E941D03DC01CB018DA79EA7AFA7EC
:10248000B8AB8DA59EA5AFA5B8A9BC01CD01E096BE
:102490000FB6F894DEBF0FBECDBFCF91DF911F9175
:1024A0000F91FF90EF900895DF93CF9300D000D06D
:1024B000CDB7DEB769837A838B839C8369817A8108
:1024C0008B819C8129813A814B815C810E941D0313
:1024D000DC01CB019C01AD0160E070E080E89FE38E
:1024E0000E94BF02DC01CB01BC01CD010E947F3DF7
:1024F0009B01AC0169817A818B819C810E941704C8
:10250000DC01CB01BC01CD010E94310FDC01CB010C
:10251000BC01CD010F900F900F900F90CF91DF91E4
:102520000895DF93CF9300D000D0CDB7DEB7698395
:102530007A838B839C8389819A81AB81BC81BC0126
:10254000CD010E9454129B01AC0160E070E084EB6D
:1025500092E40E94BF02DC01CB01BC01CD010F90CF
:102560000F900F900F90CF91DF910895DF93CF934D
:102570000F92CDB7DEB781E08983EAE3F0E08FEF19
:102580008083E7E3F0E08FEF8083E4E3F0E08FEF18
:102590008083E1E3F0E08FEF8083EBE3F0E01082F3
:1025A000E8E3F0E01082E5E3F0E084E08083E2E33A
:1025B000F0E08FEF8083198289810F90CF91DF91B6
:1025C0000895DF93CF9300D000D000D0CDB7DEB711
:1025D0008A836B834C8381E089838A81843008F00D
:1025E000D0C08B81883008F0CCC08C81823008F05C
:1025F000C8C08A81282F30E03E832D836D817E8183
:102600006130710509F441C08D819E818230910550
:1026100034F42D813E812115310571F0B0C06D81FA
:102620007E816230710509F459C08D819E818330AD
:10263000910509F47CC0A3C0AAE3B0E0EAE3F0E0AE
:102640008081482F8B81282F30E081E090E002C00C
:10265000880F991F2A95E2F7809584238C93AAE32B
:10266000B0E0EAE3F0E08081482F8C81282F30E051
:102670008B81882F90E0B90102C0660F771F8A9581
:10268000E2F7CB01842B8C937AC0A7E3B0E0E7E3B9
:10269000F0E08081482F8B81282F30E081E090E0AE
:1026A00002C0880F991F2A95E2F7809584238C93A6
:1026B000A7E3B0E0E7E3F0E08081482F8C81282F8A
:1026C00030E08B81882F90E0B90102C0660F771F40
:1026D0008A95E2F7CB01842B8C9351C0A4E3B0E040
:1026E000E4E3F0E08081482F8B81282F30E081E007
:1026F00090E002C0880F991F2A95E2F78095842305
:102700008C93A4E3B0E0E4E3F0E08081482F8C8177
:10271000282F30E08B81882F90E0B90102C0660F2E
:10272000771F8A95E2F7CB01842B8C9328C0A1E315
:10273000B0E0E1E3F0E08081482F8B81282F30E08A
:1027400081E090E002C0880F991F2A95E2F78095FA
:1027500084238C93A1E3B0E0E1E3F0E08081482F93
:102760008C81282F30E08B81882F90E0B90102C046
:10277000660F771F8A95E2F7CB01842B8C93198221
:1027800002C083E08983898126960FB6F894DEBF64
:102790000FBECDBFCF91DF910895DF93CF9300D0CF
:1027A00000D000D0CDB7DEB78A836B834C8381E045
:1027B00089838A81843008F0D0C08B81883008F00A
:1027C000CCC08C81823008F0C8C08A81282F30E0CC
:1027D0003E832D836D817E816130710509F441C096
:1027E0008D819E818230910534F42D813E812115A9
:1027F000310571F0B0C06D817E816230710509F4E0
:1028000059C08D819E818330910509F47CC0A3C09D
:10281000ABE3B0E0EBE3F0E08081482F8B81282F21
:1028200030E081E090E002C0880F991F2A95E2F71E
:10283000809584238C93ABE3B0E0EBE3F0E0808100
:10284000482F8C81282F30E08B81882F90E0B901B0
:1028500002C0660F771F8A95E2F7CB01842B8C9319
:102860007AC0A8E3B0E0E8E3F0E08081482F8B81F4
:10287000282F30E081E090E002C0880F991F2A9550
:10288000E2F7809584238C93A8E3B0E0E8E3F0E0DE
:102890008081482F8C81282F30E08B81882F90E019
:1028A000B90102C0660F771F8A95E2F7CB01842B2E
:1028B0008C9351C0A5E3B0E0E5E3F0E08081482FC0
:1028C0008B81282F30E081E090E002C0880F991FB3
:1028D0002A95E2F7809584238C93A5E3B0E0E5E3A5
:1028E000F0E08081482F8C81282F30E08B81882F69
:1028F00090E0B90102C0660F771F8A95E2F7CB011D
:10290000842B8C9328C0A2E3B0E0E2E3F0E0808166
:10291000482F8B81282F30E081E090E002C0880FA3
:10292000991F2A95E2F7809584238C93A2E3B0E067
:10293000E2E3F0E08081482F8C81282F30E08B810A
:10294000882F90E0B90102C0660F771F8A95E2F7E1
:10295000CB01842B8C93198202C083E08983898107
:1029600026960FB6F894DEBF0FBECDBFCF91DF9194
:102970000895DF93CF93CDB7DEB727970FB6F894BE
:10298000DEBF0FBECDBF8A836B835D834C8381E046
:1029900089838C819D81009709F47DC08A81843070
:1029A00008F076C08B81883008F072C08A81282FA9
:1029B00030E03F832E834E815F814130510559F1D4
:1029C0008E819F818230910534F42E813F812115C3
:1029D000310569F05BC04E815F814230510579F16C
:1029E0008E819F818330910509F43DC04FC0E9E39A
:1029F000F0E08081282F30E08B81882F90E0A901C2
:102A000002C0559547958A95E2F7CA018170EC811D
:102A1000FD8180833BC0E6E3F0E08081282F30E039
:102A20008B81882F90E0A90102C0559547958A9522
:102A3000E2F7CA018170EC81FD81808327C0E3E366
:102A4000F0E08081282F30E08B81882F90E0A90171
:102A500002C0559547958A95E2F7CA018170EC81CD
:102A6000FD81808313C0E0E3F0E08081282F30E017
:102A70008B81882F90E0A90102C0559547958A95D2
:102A8000E2F7CA018170EC81FD818083198205C063
:102A900083E0898302C082E08983898127960FB60B
:102AA000F894DEBF0FBECDBFCF91DF910895DF93C5
:102AB000CF9300D000D00F92CDB7DEB78A836B835F
:102AC00081E089838A81843008F070C08A81282F50
:102AD00030E03D832C838C819D818130910549F1CB
:102AE0002C813D81223031052CF48C819D81009711
:102AF00061F05AC02C813D812230310571F18C8109
:102B00009D8183309105E9F14FC0ABE3B0E0EBE389
:102B1000F0E08081482F8B81282F30E081E090E029
:102B2000022E02C0880F991F0A94E2F784278C9323
:102B30003BC0A8E3B0E0E8E3F0E08081482F8B8160
:102B4000282F30E081E090E0022E02C0880F991F0C
:102B50000A94E2F784278C9327C0A5E3B0E0E5E36D
:102B6000F0E08081482F8B81282F30E081E090E0D9
:102B7000022E02C0880F991F0A94E2F784278C93D3
:102B800013C0A2E3B0E0E2E3F0E08081482F8B8144
:102B9000282F30E081E090E0022E02C0880F991FBC
:102BA0000A94E2F784278C93198202C083E0898318
:102BB00089810F900F900F900F900F90CF91DF9120
:102BC00008952F923F924F925F926F927F928F92D1
:102BD0009F92AF92BF92CF92DF92EF92FF920F93AC
:102BE0001F93DF93CF93CDB7DEB7C354D0400FB65A
:102BF000F894DEBF0FBECDBFFE01EE5BFF4F81E05C
:102C0000808380E090E0A0E2B2E48DAB9EABAFABFE
:102C1000B8AF6DA97EA98FA998AD20E030E04AE752
:102C200053E40E941D03DC01CB0189AB9AABABAB33
:102C3000BCAB69A97AA98BA99CA920E030E040E847
:102C40005FE30E94830588232CF481E090E098AB39
:102C50008FA73FC069A97AA98BA99CA920E03FEF63
:102C60004FE757E40E94230518164CF56DA97EA97D
:102C70008FA998AD20E030E040E251E40E941D03AE
:102C8000DC01CB01BC01CD010E944701DC01CB017D
:102C900098AB8FA70FC089E190E09EA78DA78DA567
:102CA0009EA50197F1F79EA78DA78FA598A90197DB
:102CB00098AB8FA78FA598A9009769F714C069A949
:102CC0007AA98BA99CA90E944701DC01CB0198AB92
:102CD0008FA78FA598A99CA78BA78BA59CA50197CB
:102CE000F1F79CA78BA7FE01FA961082118212823F
:102CF0001382148215821682178280E060E041E020
:102D00000E94E112282F30E040E050E060E070E0E7
:102D100080E090E0DE01DA96FE01FA961081122B37
:102D20001C931181132B11961C9311971281142B54
:102D300012961C9312971381152B13961C931397BD
:102D40001481162B14961C9314971581172B159626
:102D50001C9315971681182B16961C931697E781CE
:102D60008E2F892B17968C9380E061E041E00E94C2
:102D7000E112882F90E0DC01AA0FBB1FAA0FBB1F36
:102D8000AA0FBB1FFD01FF0FEE0BFE2F9D014E2F63
:102D90005E2F6E2F7E2F8E2F9E2FDE01DA96FE0184
:102DA000FA961081122B1C931181132B11961C93F0
:102DB00011971281142B12961C9312971381152BC5
:102DC00013961C9313971481162B14961C93149727
:102DD0001581172B15961C9315971681182B16968F
:102DE0001C931697E7818E2F892B17968C9380E082
:102DF00062E041E00E94E112882F90E0DC010024B3
:102E0000B695A7950794B695A7950794BA2FA02DC8
:102E1000FD01FF0FEE0BFE2F9D014E2F5E2F6E2F3B
:102E20007E2F8E2F9E2FDE01DA96FE01FA961081FC
:102E3000122B1C931181132B11961C931197128145
:102E4000142B12961C9312971381152B13961C9317
:102E500013971481162B14961C9314971581172B16
:102E600015961C9315971681182B16961C9316977A
:102E7000E7818E2F892B17968C9380E063E041E0E9
:102E80000E94E112A82EBB24CC24DD24EE24FF24D2
:102E900087012A2D3B2D4C2D5D2D6E2D7F2D802FF2
:102EA000912F09E00E94C800A22EB32EC42ED52E69
:102EB000E62EF72E082F192F2A2D3B2D4C2D5D2D98
:102EC0006E2D7F2D802F912FDE01DA96FE01FA966E
:102ED0001081122B1C931181132B11961C931197A7
:102EE0001281142B12961C9312971381152B139693
:102EF0001C9313971481162B14961C931497158109
:102F0000172B15961C9315971681182B16961C9344
:102F10001697E7818E2F892B17968C9380E064E0BB
:102F200041E00E94E112A82EBB24CC24DD24EE2433
:102F3000FF2487012A2D3B2D4C2D5D2D6E2D7F2DDD
:102F4000802F912F0CE00E94C800A22EB32EC42E19
:102F5000D52EE62EF72E082F192F2A2D3B2D4C2D7E
:102F60005D2D6E2D7F2D802F912FDE01DA96FE01D3
:102F7000FA961081122B1C931181132B11961C931E
:102F800011971281142B12961C9312971381152BF3
:102F900013961C9313971481162B14961C93149755
:102FA0001581172B15961C9315971681182B1696BD
:102FB0001C931697E7818E2F892B17968C9380E0B0
:102FC00065E041E00E94E112A82EBB24CC24DD2460
:102FD000EE24FF2487012A2D3B2D4C2D5D2D6E2DD7
:102FE0007F2D802F912F0FE00E94C800A22EB32EBC
:102FF000C42ED52EE62EF72E082F192F2A2D3B2D65
:103000004C2D5D2D6E2D7F2D802F912FDE01DA96B8
:10301000FE01FA961081122B1C931181132B11962D
:103020001C9311971281142B12961C9312971381E3
:10303000152B13961C9313971481162B14961C931F
:1030400014971581172B15961C9315971681182B1D
:1030500016961C931697E7818E2F892B17968C93C3
:1030600080E066E041E00E94E112A82EBB24CC245F
:10307000DD24EE24FF2487012A2D3B2D4C2D5D2DD0
:103080006E2D7F2D802F912F02E10E94C800A22E6D
:10309000B32EC42ED52EE62EF72E082F192F2A2D4B
:1030A0003B2D4C2D5D2D6E2D7F2D802F912FDE0120
:1030B000DA96FE01FA961081122B1C931181132BC4
:1030C00011961C9311971281142B12961C93129730
:1030D0001381152B13961C9313971481162B14969A
:1030E0001C9314971581172B15961C931597168111
:1030F000182B16961C931697E7818E2F892B1796FF
:103100008C9380E20E94A220A82EBB24CC24DD2434
:10311000EE24FF2487012A2D3B2D4C2D5D2D6E2D95
:103120007F2D802F912F05E10E94C800A22EB32E83
:10313000C42ED52EE62EF72E082F192F2A2D3B2D23
:103140004C2D5D2D6E2D7F2D802F912FDE01DA9677
:10315000FE01FA961081122B1C931181132B1196EC
:103160001C9311971281142B12961C9312971381A2
:10317000152B13961C9313971481162B14961C93DE
:1031800014971581172B15961C9315971681182BDC
:1031900016961C931697E7818E2F892B17968C9382
:1031A00080E20E94A220A82EBB24CC24DD24EE24A1
:1031B000FF2487012A2D3B2D4C2D5D2D6E2D7F2D5B
:1031C000802F912F08E10E94C800A22EB32EC42E9A
:1031D000D52EE62EF72E082F192F2A2D3B2D4C2DFC
:1031E0005D2D6E2D7F2D802F912FDE01DA96FE0151
:1031F000FA961081122B1C931181132B11961C939C
:1032000011971281142B12961C9312971381152B70
:1032100013961C9313971481162B14961C931497D2
:103220001581172B15961C9315971681182B16963A
:103230001C931697E7818E2F892B17968C9380E825
:103240000E94A220A82EBB24CC24DD24EE24FF243F
:1032500087012A2D3B2D4C2D5D2D6E2D7F2D802F2E
:10326000912F0BE10E94C800A22EB32EC42ED52EA2
:10327000E62EF72E082F192F2A2D3B2D4C2D5D2DD4
:103280006E2D7F2D802F912FDE01DA96FE01FA96AA
:103290001081122B1C931181132B11961C931197E3
:1032A0001281142B12961C9312971381152B1396CF
:1032B0001C9313971481162B14961C931497158145
:1032C000172B15961C9315971681182B16961C9381
:1032D0001697E7818E2F892B17968C9380E090E0CC
:1032E000A0E8BFE38FA398A7A9A7BAA76FA178A565
:1032F00089A59AA520E030E04AE753E40E941D0327
:10330000DC01CB018BA39CA3ADA3BEA36BA17CA1CD
:103310008DA19EA120E030E040E85FE30E9483059C
:1033200088232CF481E090E09AA389A33FC06BA18D
:103330007CA18DA19EA120E03FEF4FE757E40E94C2
:10334000230518164CF56FA178A589A59AA520E04C
:1033500030E040E251E40E941D03DC01CB01BC01DE
:10336000CD010E944701DC01CB019AA389A30FC0C4
:1033700089E190E098A38F8F8F8D98A10197F1F745
:1033800098A38F8F89A19AA101979AA389A389A154
:103390009AA1009769F714C06BA17CA18DA19EA191
:1033A0000E944701DC01CB019AA389A389A19AA1BC
:1033B0009E8F8D8F8D8D9E8D0197F1F79E8F8D8FB6
:1033C00080E00E94A220A82EBB24CC24DD24EE2481
:1033D000FF2487012A2D3B2D4C2D5D2D6E2D7F2D39
:1033E000802F912F0EE10E94C800A22EB32EC42E72
:1033F000D52EE62EF72E082F192F2A2D3B2D4C2DDA
:103400005D2D6E2D7F2D802F912FDE01DA96FE012E
:10341000FA961081122B1C931181132B11961C9379
:1034200011971281142B12961C9312971381152B4E
:1034300013961C9313971481162B14961C931497B0
:103440001581172B15961C9315971681182B169618
:103450001C931697E7818E2F892B17968C9380EFFC
:103460000E94A220A82EBB24CC24DD24EE24FF241D
:1034700087012A2D3B2D4C2D5D2D6E2D7F2D802F0C
:10348000912F01E20E94C800A22EB32EC42ED52E89
:10349000E62EF72E082F192F2A2D3B2D4C2D5D2DB2
:1034A0006E2D7F2D802F912FDE01DA96FE01FA9688
:1034B0001081122B1C931181132B11961C931197C1
:1034C0001281142B12961C9312971381152B1396AD
:1034D0001C9313971481162B14961C931497158123
:1034E000172B15961C9315971681182B16961C935F
:1034F0001697E7818E2F892B17968C9380E090E0AA
:10350000A0E8BFE3898F9A8FAB8FBC8F698D7A8DCE
:103510008B8D9C8D20E030E04AE753E40E941D0330
:10352000DC01CB018D8B9E8BAF8BB88F6D897E8933
:103530008F89988D20E030E040E85FE30E948305AA
:1035400088232CF481E090E09C8B8B8B3FC06D89AD
:103550007E898F89988D20E03FEF4FE757E40E94E6
:10356000230518164CF5698D7A8D8B8D9C8D20E086
:1035700030E040E251E40E941D03DC01CB01BC01BC
:10358000CD010E944701DC01CB019C8B8B8B0FC0CE
:1035900089E190E09A8B898B89899A890197F1F763
:1035A0009A8B898B8B899C8901979C8B8B8B8B89C0
:1035B0009C89009769F714C06D897E898F89988DE1
:1035C0000E944701DC01CB019C8B8B8B8B899C89F2
:1035D000988B8F878F8598890197F1F7988B8F87C4
:1035E00080E00E94A220A82EBB24CC24DD24EE245F
:1035F000FF2487012A2D3B2D4C2D5D2D6E2D7F2D17
:10360000802F912F04E20E94C800A22EB32EC42E58
:10361000D52EE62EF72E082F192F2A2D3B2D4C2DB7
:103620005D2D6E2D7F2D802F912FDE01DA96FE010C
:10363000FA961081122B1C931181132B11961C9357
:1036400011971281142B12961C9312971381152B2C
:1036500013961C9313971481162B14961C9314978E
:103660001581172B15961C9315971681182B1696F6
:103670001C931697E7818E2F892B17968C9380E1E8
:103680000E94A220A82EBB24CC24DD24EE24FF24FB
:1036900087012A2D3B2D4C2D5D2D6E2D7F2D802FEA
:1036A000912F07E20E94C800A22EB32EC42ED52E61
:1036B000E62EF72E082F192F2A2D3B2D4C2D5D2D90
:1036C0006E2D7F2D802F912FDE01DA96FE01FA9666
:1036D0001081122B1C931181132B11961C9311979F
:1036E0001281142B12961C9312971381152B13968B
:1036F0001C9313971481162B14961C931497158101
:10370000172B15961C9315971681182B16961C933C
:103710001697E7818E2F892B17968C9380E090E087
:10372000A0E0B0E48B879C87AD87BE876B857C85E6
:103730008D859E8520E030E04AE753E40E941D031A
:10374000DC01CB018F839887A987BA876F81788541
:1037500089859A8520E030E040E85FE30E94830598
:1037600088232CF481E090E09E838D833FC06F819D
:10377000788589859A8520E03FEF4FE757E40E94DE
:10378000230518164CF56B857C858D859E8520E07C
:1037900030E040E251E40E941D03DC01CB01BC019A
:1037A000CD010E944701DC01CB019E838D830FC0B8
:1037B00089E190E09C838B838B819C810197F1F759
:1037C0009C838B838D819E8101979E838D838D81C8
:1037D0009E81009769F714C06F81788589859A85E5
:1037E0000E944701DC01CB019E838D838D819E81E8
:1037F0009A83898389819A810197F1F79A838983D2
:1038000080E00E94A220A82EBB24CC24DD24EE243C
:10381000FF2487012A2D3B2D4C2D5D2D6E2D7F2DF4
:10382000802F912F0AE20E94C800A22EB32EC42E30
:10383000D52EE62EF72E082F192F2A2D3B2D4C2D95
:103840005D2D6E2D7F2D802F912FDE01DA96FE01EA
:10385000FA961081122B1C931181132B11961C9335
:1038600011971281142B12961C9312971381152B0A
:1038700013961C9313971481162B14961C9314976C
:103880001581172B15961C9315971681182B1696D4
:103890001C931697E7818E2F892B17968C9380E6C1
:1038A0000E94A220A82EBB24CC24DD24EE24FF24D9
:1038B00087012A2D3B2D4C2D5D2D6E2D7F2D802FC8
:1038C000912F0DE20E94C800A22EB32EC42ED52E39
:1038D000E62EF72E082F192F2A2D3B2D4C2D5D2D6E
:1038E0006E2D7F2D802F912FDE01DA96FE01FA9644
:1038F0001081122B1C931181132B11961C9311977D
:103900001281142B12961C9312971381152B139668
:103910001C9313971481162B14961C9314971581DE
:10392000172B15961C9315971681182B16961C931A
:103930001697E7818E2F892B17968C93179719AEC0
:1039400042C089ADA82FB0E0FE01FA9620813181F6
:103950004281538164817581868197810A2F0E94FB
:103960004900A22EB32EC42ED52EE62EF72E082FF8
:10397000192F2A2C3B2C4C2C5D2C6E2C7F2C802E4E
:10398000912E222D2770332D3070442D4070552DEF
:103990005070662D6070772D7070882D8070992D15
:1039A0009070E22FE32BE42BE52BE62BE72BE82BA3
:1039B000E92BEE2329F081E024968FAF249715C0E0
:1039C00089AD8D5F89AF89AD8E3208F4BACF81E0C1
:1039D00080933202FE01EE5BFF4F1082FE01EE5B30
:1039E000FF4F808124968FAF249724968FAD249724
:1039F000CD5BDF4F0FB6F894DEBF0FBECDBFCF91CA
:103A0000DF911F910F91FF90EF90DF90CF90BF90CB
:103A1000AF909F908F907F906F905F904F903F906E
:103A20002F900895DF93CF93CDB7DEB7E2970FB60F
:103A3000F894DEBF0FBECDBF89AB81E088AB1CA67A
:103A40001DA61EA61FA680E061E040E00E94CD13E7
:103A5000282F30E040E050E08CA59DA5AEA5BFA585
:103A6000822B932BA42BB52B8CA79DA7AEA7BFA70A
:103A700080E062E040E00E94CD13882F90E0880F44
:103A8000991F880F991F880F991F9C01442737FDA4
:103A90004095542F8CA59DA5AEA5BFA5822B932B39
:103AA000A42BB52B8CA79DA7AEA7BFA789A98295EC
:103AB0008F70982F917080E063E0492F0E94CD13A2
:103AC000882F90E000249695879507949695879582
:103AD0000794982F802D9C01442737FD4095542F43
:103AE0008CA59DA5AEA5BFA5822B932BA42BB52B92
:103AF0008CA79DA7AEA7BFA789A982958695877039
:103B0000982F917080E064E0492F0E94CD13882F98
:103B100090E0A0E0B0E09C01AD01012E19E0220F81
:103B2000331F441F551F1A95D1F7102D8CA59DA545
:103B3000AEA5BFA5822B932BA42BB52B8CA79DA73D
:103B4000AEA7BFA789A98295869586958370982F81
:103B5000917080E065E0492F0E94CD13882F90E09E
:103B6000A0E0B0E09C01AD01012E1CE0220F331F4C
:103B7000441F551F1A95D1F7102D8CA59DA5AEA5F4
:103B8000BFA5822B932BA42BB52B8CA79DA7AEA7EB
:103B9000BFA789A9982F991F9927991F80E066E0F0
:103BA000492F0E94CD13882F90E0A0E0B0E09C0147
:103BB000AD01012E1FE0220F331F441F551F1A9520
:103BC000D1F7102D8CA59DA5AEA5BFA5822B932B5B
:103BD000A42BB52B8CA79DA7AEA7BFA780913202BF
:103BE000882309F481C180E062E041E00E94CD13A6
:103BF00080E090E0A0E8BFE38FA398A7A9A7BAA7A9
:103C00006FA178A589A59AA520E030E04AE753E4A2
:103C10000E941D03DC01CB018BA39CA3ADA3BEA31B
:103C20006BA17CA18DA19EA120E030E040E85FE384
:103C30000E94830588232CF481E090E09AA389A355
:103C40003FC06BA17CA18DA19EA120E03FEF4FE77B
:103C500057E40E94230518164CF56FA178A589A595
:103C60009AA520E030E040E251E40E941D03DC010F
:103C7000CB01BC01CD010E944701DC01CB019AA31D
:103C800089A30FC089E190E098A38F8F8F8D98A1B1
:103C90000197F1F798A38F8F89A19AA101979AA311
:103CA00089A389A19AA1009769F714C06BA17CA18F
:103CB0008DA19EA10E944701DC01CB019AA389A39B
:103CC00089A19AA19E8F8D8F8D8D9E8D0197F1F781
:103CD0009E8F8D8F80E062E040E00E94CD1380E0F7
:103CE00090E0A0E8BFE3898F9A8FAB8FBC8F698D7E
:103CF0007A8D8B8D9C8D20E030E04AE753E40E9462
:103D00001D03DC01CB018D8B9E8BAF8BB88F6D8932
:103D10007E898F89988D20E030E040E85FE30E9443
:103D2000830588232CF481E090E09C8B8B8B3FC033
:103D30006D897E898F89988D20E03FEF4FE757E4AA
:103D40000E94230518164CF5698D7A8D8B8D9C8DFC
:103D500020E030E040E251E40E941D03DC01CB0191
:103D6000BC01CD010E944701DC01CB019C8B8B8BF8
:103D70000FC089E190E09A8B898B89899A89019794
:103D8000F1F79A8B898B8B899C8901979C8B8B8B04
:103D90008B899C89009769F714C06D897E898F890A
:103DA000988D0E944701DC01CB019C8B8B8B8B890A
:103DB0009C89988B8F878F8598890197F1F7988BCD
:103DC0008F8789A9982F917080E063E0492F0E9426
:103DD000CD13882F90E000249695879507949695AB
:103DE00087950794982F802D9C01442737FD409597
:103DF000542F8CA59DA5AEA5BFA5822B932BA42BDC
:103E0000B52B8CA79DA7AEA7BFA789A98695982F8C
:103E1000917080E064E0492F0E94CD13882F90E0DC
:103E2000A0E0B0E09C01AD01012E19E0220F331F8C
:103E3000441F551F1A95D1F7102D8CA59DA5AEA531
:103E4000BFA5822B932BA42BB52B8CA79DA7AEA728
:103E5000BFA789A986958695982F917080E065E027
:103E6000492F0E94CD13882F90E0A0E0B0E09C0184
:103E7000AD01012E1CE0220F331F441F551F1A9560
:103E8000D1F7102D8CA59DA5AEA5BFA5822B932B98
:103E9000A42BB52B8CA79DA7AEA7BFA789A98695F4
:103EA00086958695982F917080E066E0492F0E9454
:103EB000CD13882F90E0A0E0B0E09C01AD01012E71
:103EC0001FE0220F331F441F551F1A95D1F7102DE5
:103ED0008CA59DA5AEA5BFA5822B932BA42BB52B9E
:103EE0008CA79DA7AEA7BFA71BA61DC08BA5282F7B
:103EF00030E08CA59DA5AEA5BFA5022E04C0B69549
:103F0000A795979587950A94D2F787709070A070BF
:103F1000B0700097A105B10519F081E08AAB85C0AA
:103F20008BA58D5F8BA78BA5803100F380E062E0CD
:103F300041E00E94CD1380E090E0A0E2B1E48B87E5
:103F40009C87AD87BE876B857C858D859E8520E0AF
:103F500030E04AE753E40E941D03DC01CB018F836C
:103F60009887A987BA876F81788589859A8520E0A7
:103F700030E040E85FE30E94830588232CF481E071
:103F800090E09E838D833FC06F81788589859A8577
:103F900020E03FEF4FE757E40E94230518164CF549
:103FA0006B857C858D859E8520E030E040E251E484
:103FB0000E941D03DC01CB01BC01CD010E94470121
:103FC000DC01CB019E838D830FC089E190E09C834F
:103FD0008B838B819C810197F1F79C838B838D81EF
:103FE0009E8101979E838D838D819E81009769F7C5
:103FF00014C06F81788589859A850E944701DC010C
:10400000CB019E838D838D819E819A838983898153
:104010009A810197F1F79A83898380E062E040E01A
:104020000E94CD1318AA88A98AAB8AA9E2960FB676
:10403000F894DEBF0FBECDBFCF91DF9108950F93EF
:104040001F93DF93CF9300D000D00F92CDB7DEB790
:104050009C838B8381E08A8380E060E041E00E9462
:10406000CD138823F9F4198213C08981282F30E0F9
:104070008B819C81FC01E20FF31F80810E94121D45
:10408000882319F08A818D8310C089818F5F89838D
:104090008981082F10E08B819C810E94FA3C0817CF
:1040A000190718F31A828A818D838D810F900F90E2
:1040B0000F900F900F90CF91DF911F910F91089566
:1040C000DF93CF9300D0CDB7DEB78A8381E08983B9
:1040D00080E060E041E00E94CD13882321F48A81D2
:1040E0000E94121D898389810F900F90CF91DF91DB
:1040F0000895DF93CF930F92CDB7DEB781E0898328
:1041000081E00E94A220898389810F90CF91DF9165
:104110000895DF93CF9300D0CDB7DEB78A8381E0D7
:10412000898380E060E040E00E94CD13882321F481
:104130008A810E94121D898389810F900F90CF91EF
:10414000DF910895DF93CF9300D0CDB7DEB78A8398
:1041500081E0898380E060E040E00E94CD13882305
:1041600021F48A810E94121D898389810F900F900A
:10417000CF91DF910895DF93CF9300D000D000D08E
:10418000CDB7DEB79C838B836D834E8381E08A83BA
:1041900080E40E9489208A8319820EC08981282F99
:1041A00030E08B819C81FC01E20FF31F80810E9433
:1041B000602089818F5F89838981282F30E08D81FC
:1041C000882F90E0880F991F880F991F880F991FDB
:1041D000281739071CF38E81883549F48FE80E942F
:1041E00089208A8384E00E9489208A8305C08E8189
:1041F000833611F083E08A831A828A8126960FB66D
:10420000F894DEBF0FBECDBFCF91DF910895DF934D
:10421000CF9300D000D0CDB7DEB78A836B8381E027
:1042200089838A81813031F48B8180580E94892072
:1042300089830CC08A81823031F48B8180540E9442
:104240008920898303C083E08C8302C089818C83A9
:104250008C810F900F900F900F90CF91DF91089568
:104260000F931F93DF93CF93CDB7DEB72F970FB682
:10427000F894DEBF0FBECDBF69877A878B879C8796
:1042800081E0888780E060E041E00E94CD1388876C
:1042900069857A858B859C8520E030E040E050E0A0
:1042A0000E94C304882339F480E30E94121D88878A
:1042B00028852F8765C18FEF8F8369857A858B85E8
:1042C0009C850E944106DC01CB018B839C83AD83DE
:1042D000BE8369857A858B859C8520E030E040E04F
:1042E00050E00E948305882394F48DE20E946020B0
:1042F0008B819C81AD81BE81B095A0959095819573
:104300009F4FAF4FBF4F8B839C83AD83BE831E8671
:1043100069857A858B859C8520E030E040E85FE305
:104320000E948305882314F481E08E8781E09E85B6
:104330008927882361F469857A858B859C8520E0AF
:1043400030E040E050E00E942305181604F11D867D
:1043500069857A858B859C8520E030E040E85FEBBD
:104360000E942305181614F421E02D8781E09D8515
:1043700089278823E1F569857A858B859C8520E0EE
:1043800030E040E050E00E948305882384F580E31C
:104390000E9460202CC08F818F5F8F838F81082FB8
:1043A000112707FD10958B819C81AD81BE812AE08C
:1043B00030E040E050E0BC01CD010E94A83CDC01AF
:1043C000CB01F801ED52FE4F80838B819C81AD8142
:1043D000BE812AE030E040E050E0BC01CD010E9407
:1043E000A83CDA01C9018B839C83AD83BE838B819A
:1043F0009C81AD81BE81181619061A061B069CF415
:104400008885882341F20FC08F81992787FD909579
:10441000FC01ED52FE4F8081805D0E94121D888755
:104420008F8181508F838F8188231CF0888588231A
:1044300059F369857A858B859C850E944106DC014C
:10444000CB01BC01CD010E94E3059B01AC01698554
:104450007A858B859C850E94BF02DC01CB01898710
:104460009A87AB87BC8769857A858B859C8520E098
:1044700030E040E050E00E94F304882309F47EC05D
:104480008EE20E94121D69857A858B859C8520E0CD
:1044900030E040E050E00E94830588234CF4898599
:1044A0009A85AB85BC85B05889879A87AB87BC87CE
:1044B0008AE090E09A83898344C08F818F5F8F83E5
:1044C0008F81282F332727FD309583E090E08C01E2
:1044D000021B130B89819A81CC01A0E0B0E0BC01E2
:1044E000CD010E949506DC01CB01BC01CD012985DF
:1044F0003A854B855C850E941D03DC01CB01BC0124
:10450000CD010E944106DC01CB012AE030E040E011
:1045100050E0BC01CD010E94A83CDC01CB01F801B8
:10452000ED52FE4F808389819A819C01220F331FB7
:10453000C901880F991F880F991F820F931F9A83B3
:10454000898389819A8127E28131920708F4B5CF66
:104550000FC08F81992787FD9095FC01ED52FE4F8A
:104560008081805D0E94121D88878F8181508F839A
:104570008F8188231CF08885882359F388858F874D
:104580008F852F960FB6F894DEBF0FBECDBFCF91AB
:10459000DF911F910F9108952F923F924F925F925A
:1045A0006F927F928F929F92AF92BF92CF92DF9243
:1045B000EF92FF920F931F93DF93CF9300D00F9250
:1045C000CDB7DEB781E08A8381E063E041E00E94FD
:1045D000E112282E332444245524662477244301F1
:1045E000A0903302B0903402C0903502D0903602D1
:1045F000E0903702F09038020091390210913A02AF
:10460000222D2A29332D3B29442D4C29552D5D2956
:10461000662D6E29772D7F29882D802B992D912B42
:104620002093330230933402409335025093360284
:1046300060933702709338028093390290933A0264
:1046400081E064E041E00E94E112882F90E09C014B
:10465000220F331F220F331F220F331FC901990F5F
:10466000880B982F1901482E582E682E782E882EE8
:10467000982EA0903302B0903402C0903502D090B2
:104680003602E0903702F090380200913902109122
:104690003A02222D2A29332D3B29442D4C29552D10
:1046A0005D29662D6E29772D7F29882D802B992DE8
:1046B000912B209333023093340240933502509370
:1046C00036026093370270933802809339029093D8
:1046D0003A0281E065E041E00E94E112882F90E01B
:1046E0009C010024369527950794369527950794C5
:1046F000322F202DC901990F880B982F1901482EB0
:10470000582E682E782E882E982EA0903302B090C6
:104710003402C0903502D0903602E0903702F0901B
:1047200038020091390210913A02222D2A29332DA4
:104730003B29442D4C29552D5D29662D6E29772D59
:104740007F29882D802B992D912B20933302309334
:1047500034024093350250933602609337027093CF
:1047600038028093390290933A0281E066E041E09A
:104770000E94E112A82EBB24CC24DD24EE24FF24C9
:1047800087012A2D3B2D4C2D5D2D6E2D7F2D802FE9
:10479000912F09E00E94C800A22EB32EC42ED52E60
:1047A000E62EF72E082F192F2A2C3B2C4C2C5D2C93
:1047B0006E2C7F2C802E912EA0903302B09034026C
:1047C000C0903502D0903602E0903702F090380267
:1047D0000091390210913A02222D2A29332D3B29CA
:1047E000442D4C29552D5D29662D6E29772D7F2965
:1047F000882D802B992D912B2093330230933402F6
:10480000409335025093360260933702709338021A
:104810008093390290933A0281E067E041E00E9480
:10482000E112A82EBB24CC24DD24EE24FF24870132
:104830002A2D3B2D4C2D5D2D6E2D7F2D802F912F00
:104840000CE00E94C800A22EB32EC42ED52EE62E58
:10485000F72E082F192F2A2C3B2C4C2C5D2C6E2C5C
:104860007F2C802E912EA0903302B0903402C09005
:104870003502D0903602E0903702F0903802009175
:10488000390210913A02222D2A29332D3B29442D39
:104890004C29552D5D29662D6E29772D7F29882D70
:1048A000802B992D912B2093330230933402409327
:1048B000350250933602609337027093380280932A
:1048C000390290933A0282E060E041E00E94E112F6
:1048D000A82EBB24CC24DD24EE24FF2487012A2D1E
:1048E0003B2D4C2D5D2D6E2D7F2D802F912F0FE0B8
:1048F0000E94C800A22EB32EC42ED52EE62EF72E6F
:10490000082F192F2A2C3B2C4C2C5D2C6E2C7F2C25
:10491000802E912EA0903302B0903402C0903502C8
:10492000D0903602E0903702F090380200913902C0
:1049300010913A02222D2A29332D3B29442D4C294E
:10494000552D5D29662D6E29772D7F29882D802B89
:10495000992D912B209333023093340240933502EA
:104960005093360260933702709338028093390275
:1049700090933A0282E061E041E00E94E112A82EA9
:10498000BB24CC24DD24EE24FF2487012A2D3B2DDB
:104990004C2D5D2D6E2D7F2D802F912F02E10E94D9
:1049A000C800A22EB32EC42ED52EE62EF72E082F29
:1049B000192F2A2C3B2C4C2C5D2C6E2C7F2C802EFE
:1049C000912EA0903302B0903402C0903502D09066
:1049D0003602E0903702F0903802009139021091CF
:1049E0003A02222D2A29332D3B29442D4C29552DBD
:1049F0005D29662D6E29772D7F29882D802B992D95
:104A0000912B20933302309334024093350250931C
:104A10003602609337027093380280933902909384
:104A20003A0282E062E041E00E94E112A82EBB243B
:104A3000CC24DD24EE24FF2487012A2D3B2D4C2D90
:104A40005D2D6E2D7F2D802F912F05E10E94C800D6
:104A5000A22EB32EC42ED52EE62EF72E082F192FF8
:104A60002A2C3B2C4C2C5D2C6E2C7F2C802E912ED6
:104A7000A0903302B0903402C0903502D09036023C
:104A8000E0903702F09038020091390210913A021A
:104A9000222D2A29332D3B29442D4C29552D5D29C2
:104AA000662D6E29772D7F29882D802B992D912BAE
:104AB00020933302309334024093350250933602F0
:104AC00060933702709338028093390290933A02D0
:104AD00082E063E041E00E94E112A82EBB24CC24D6
:104AE000DD24EE24FF2487012A2D3B2D4C2D5D2D46
:104AF0006E2D7F2D802F912F08E10E94C800A22EDD
:104B0000B32EC42ED52EE62EF72E082F192F2A2CC1
:104B10003B2C4C2C5D2C6E2C7F2C802E912EA0904B
:104B20003302B0903402C0903502D0903602E0904B
:104B30003702F09038020091390210913A02222D8A
:104B40002A29332D3B29442D4C29552D5D29662DCD
:104B50006E29772D7F29882D802B992D912B2093DD
:104B600033023093340240933502509336026093FF
:104B70003702709338028093390290933A0282E0B0
:104B800064E041E00E94E112A82EBB24CC24DD2485
:104B9000EE24FF2487012A2D3B2D4C2D5D2D6E2DFB
:104BA0007F2D802F912F0BE10E94C800A22EB32EE3
:104BB000C42ED52EE62EF72E082F192F2A2C3B2C8B
:104BC0004C2C5D2C6E2C7F2C802E912EA0903302CD
:104BD000B0903402C0903502D0903602E090370297
:104BE000F09038020091390210913A02222D2A29C0
:104BF000332D3B29442D4C29552D5D29662D6E29D9
:104C0000772D7F29882D802B992D912B209333028E
:104C1000309334024093350250933602609337024A
:104C2000709338028093390290933A0281E063E0F6
:104C300041E00E94CD1381E064E041E00E94CD1389
:104C400081E065E041E00E94CD1381E066E041E053
:104C50000E94CD1381E067E041E00E94CD1382E025
:104C600060E041E00E94CD1382E061E041E00E94FB
:104C7000CD1382E062E041E00E94CD1382E063E068
:104C800041E00E94CD1382E064E041E00E94CD1338
:104C900080E067E040E00E94E112A82EBB24CC2413
:104CA000DD24EE24FF2487012A2D3B2D4C2D5D2D84
:104CB0006E2D7F2D802F912F0EE10E94C800A22E15
:104CC000B32EC42ED52EE62EF72E082F192F2A2C00
:104CD0003B2C4C2C5D2C6E2C7F2C802E912EA0908A
:104CE0003302B0903402C0903502D0903602E0908A
:104CF0003702F09038020091390210913A02222DC9
:104D00002A29332D3B29442D4C29552D5D29662D0B
:104D10006E29772D7F29882D802B992D912B20931B
:104D2000330230933402409335025093360260933D
:104D30003702709338028093390290933A0281E0EF
:104D400060E040E00E94E112A82EBB24CC24DD24C8
:104D5000EE24FF2487012A2D3B2D4C2D5D2D6E2D39
:104D60007F2D802F912F01E20E94C800A22EB32E2A
:104D7000C42ED52EE62EF72E082F192F2A2C3B2CC9
:104D80004C2C5D2C6E2C7F2C802E912EA09033020B
:104D9000B0903402C0903502D0903602E0903702D5
:104DA000F09038020091390210913A02222D2A29FE
:104DB000332D3B29442D4C29552D5D29662D6E2917
:104DC000772D7F29882D802B992D912B20933302CD
:104DD0003093340240933502509336026093370289
:104DE000709338028093390290933A0281E061E037
:104DF00040E00E94E112A82EBB24CC24DD24EE2446
:104E0000FF2487012A2D3B2D4C2D5D2D6E2D7F2DEE
:104E1000802F912F04E20E94C800A22EB32EC42E30
:104E2000D52EE62EF72E082F192F2A2C3B2C4C2C92
:104E30005D2C6E2C7F2C802E912EA0903302B09092
:104E40003402C0903502D0903602E0903702F090E4
:104E500038020091390210913A02222D2A29332D6D
:104E60003B29442D4C29552D5D29662D6E29772D22
:104E70007F29882D802B992D912B209333023093FD
:104E80003402409335025093360260933702709398
:104E900038028093390290933A0281E062E040E068
:104EA0000E94E112A82EBB24CC24DD24EE24FF2492
:104EB00087012A2D3B2D4C2D5D2D6E2D7F2D802FB2
:104EC000912F07E20E94C800A22EB32EC42ED52E29
:104ED000E62EF72E082F192F2A2C3B2C4C2C5D2C5C
:104EE0006E2C7F2C802E912EA0903302B090340235
:104EF000C0903502D0903602E0903702F090380230
:104F00000091390210913A02222D2A29332D3B2992
:104F1000442D4C29552D5D29662D6E29772D7F292D
:104F2000882D802B992D912B2093330230933402BE
:104F300040933502509336026093370270933802E3
:104F40008093390290933A0280E067E041E00E944A
:104F5000CD1381E060E041E00E94CD1381E061E08B
:104F600041E00E94CD1381E062E041E00E94CD1358
:104F700019824EC0A0903302B0903402C090350226
:104F8000D0903602E0903702F0903802009139025A
:104F900010913A028981E82FF0E02A2D3B2D4C2D0B
:104FA0005D2D6E2D7F2D802F912F0E2F0E94490099
:104FB000A22EB32EC42ED52EE62EF72E082F192F93
:104FC0002A2C3B2C4C2C5D2C6E2C7F2C802E912E71
:104FD000222D2770332D3070442D4070552D507088
:104FE000662D6070772D7070882D8070992D90706F
:104FF000E22FE32BE42BE52BE62BE72BE82BE92B29
:10500000EE2319F081E08B830AC089818D5F89834B
:105010008981883208F4AECF1A828A818B838B8192
:105020000F900F900F90CF91DF911F910F91FF90F4
:10503000EF90DF90CF90BF90AF909F908F907F9038
:105040006F905F904F903F902F900895DF93CF9394
:1050500000D000D00F92CDB7DEB79C838B8381E068
:105060008A838FEF898310923C02ADC080913C020D
:10507000882F90E0880F991FFC01ED51FE4F208191
:1050800080913C02882F90E0880F991FFC01EC5121
:10509000FE4F9081822F692F40E00E94CD1388231C
:1050A00019F08A818D839BC010923B0269C0809168
:1050B0003B02882F90E0880F991FFC01E950FE4FBA
:1050C000408180913B02882F90E0880F991FFC015E
:1050D000E850FE4F90812B813C81842F692FA901DC
:1050E0000E94B914882319F08A818D8378C0EB81DE
:1050F000FC818081882309F03EC01BC080913B0267
:10510000882F90E0880F991FFC01E950FE4F4081E5
:1051100080913B02882F90E0880F991FFC01E85096
:10512000FE4F90812B813C81842F692FA9010E9421
:10513000B914EB81FC818081882301F380913B02CB
:10514000282F30E080913C02482F50E0C901880FA1
:10515000991F9C01220F331F220F331F820F931FB1
:10516000840F951FFC01E150FE4F8081EB81FC8193
:1051700080831D8234C080913B028F5F80933B020D
:1051800080913B02843008F492CF80913C02882FBA
:1051900090E0880F991FFC01ED51FE4F2081809116
:1051A0003C02882F90E0880F991FFC01EC51FE4FC4
:1051B0009081822F692F41E00E94CD1380913C02A3
:1051C0008F5F80933C0280913C028A3008F44ECF7E
:1051D000EB81FC81898180831A828A818D838D8114
:1051E0000F900F900F900F900F90CF91DF91089537
:1051F000DF93CF930F92CDB7DEB70E94B6120E9415
:10520000CC2281E392E00E942628882321F4809119
:1052100031028336B1F70E94E11582E892E060E145
:105220000E94D63A8FEF8093310281E392E00E9490
:105230002628882321F4809131028F3FB1F30E9408
:10524000222B809131028B3651F480913D02909156
:105250003E02916090933E0280933D02E3CF8091A5
:1052600031028335F1F480E690E00E941F208091A6
:1052700027028F5F8093270280912702992787FD5D
:105280009095880F991F880F991FFC01E95BFD4FCE
:105290008BED9FE0A9E4B0E480839183A283B38384
:1052A000C1CF80913102813469F480E090E0A0E8C0
:1052B000BFE380932D0290932E02A0932F02B09310
:1052C0003002B0CF80913102823469F485E39AEFE5
:1052D000AEE8BCE380932D0290932E02A0932F02A0
:1052E000B09330029FCF80913D0290913E02807832
:1052F0009070009709F485C080913D0290913E0224
:1053000080709470009709F07CC0809131028033E6
:1053100020F0809131028A3398F0809131028134FB
:1053200008F46FC080913102873408F06AC0809120
:105330003D0290913E0280709170009709F461C027
:1053400080913D0290913E0280709270009791F59D
:1053500080913D0290913E0280709071009789F09B
:1053600080913102803320F080913102883348F0FF
:1053700080913D0290913E02906290933E02809314
:105380003D0280913D0290913E028070987000979E
:1053900089F080913102803369F08091310281334C
:1053A00049F080913D0290913E02906290933E02BE
:1053B00080933D02809131020E94602080912802FA
:1053C000898312C08981282F30E08981882F90E05D
:1053D0000196FC01EE57FD4F8081F901EE57FD4F1C
:1053E000808389818F5F898389818F3058F3809191
:1053F000310280939102809128028150809328028B
:1054000011CF80913102803338F0809131028A339C
:1054100018F40E94093906CF809131028E32D1F4FE
:10542000809131020E94602080913D0290913E0265
:10543000826090933E0280933D0280E090E0A0E283
:10544000B1E48093290290932A02A0932B02B09397
:105450002C02E8CE809131028F3319F40E942F3C48
:10546000E1CE80913D0290913E0280729070009753
:10547000E1F0809131028D32B1F480913D02909142
:105480003E0280719070009771F0809131020E940D
:10549000602080913D0290913E02816090933E0297
:1054A00080933D02BFCE0E943833809131028D320D
:1054B00011F5809131020E94602080913D0290910F
:1054C0003E0280719070009761F480913D0290914E
:1054D0003E0288709070009771F480913F0288239B
:1054E00051F480913D0290913E02816090933E0282
:1054F00080933D0297CE80913D0290913E02807252
:105500009070009711F00E943833809131028B32F5
:10551000D1F4809131020E94602080913D029091EF
:105520003E0280719070009709F07CCE80913D0220
:1055300090913E0288709070009729F480913F020C
:10554000882309F46FCE80913D0290913E028E7FB8
:1055500090933E0280933D0280913D0290913E02E5
:105560008D7F90933E0280933D0280913D02909109
:105570003E02806190933E0280933D0280913D0205
:1055800090913E02877F90933E0280933D028091EE
:105590003102873430F080913102843510F40E945A
:1055A0006138809131028D3381F080913F029927DB
:1055B00087FD909520913102FC01E958FD4F208331
:1055C00080913F028F5F80933F028091310283344C
:1055D00038F080913102873418F40E94712F22CE66
:1055E000809131028D3391F080913D0290913E0285
:1055F0008F7790933E0280933D0280913D0290917F
:105600003E029E7F90933E0280933D028091310244
:105610008E3619F40E949B2B05CE809131028D337A
:1056200019F40E94E52BFECD80913102883529F0D6
:10563000809131028F3209F0F5CD809131020E94C4
:105640006020F0CDDF93CF93CDB7DEB780913102EC
:105650008C3420F080913102823520F0809131022B
:10566000883429F4809140028B5F809340028091BE
:105670003102803320F0809131028A33C0F0809172
:1056800031028B32A1F0809131028D3281F0809114
:105690003102883561F0809131028F3241F0809182
:1056A0003102823521F0809131028E3231F48091C5
:1056B00040028F5F8093400225C0809131028F337A
:1056C00031F4809140028D5F809340021BC0809135
:1056D0003102833521F080913102873431F4809199
:1056E00040028E5F809340020DC080913102893468
:1056F00048F0809131028C3428F4809140028C5F14
:105700008093400280914002813194F00DC088E185
:105710000E948920809141028F5F80934102809195
:1057200040028150809340028091400281317CF799
:10573000CF91DF910895DF93CF93CDB7DEB70E946D
:10574000792087E492E06CE00E94D63A87E792E005
:105750006BE00E94D63A82E892E060E10E94D63A7D
:1057600010923F028FEF809327028091410288239D
:1057700069F008C08CE10E9489208091410281502B
:1057800080934102809141028823A4F781E090E058
:1057900060E070E00E9407211092400210924102E6
:1057A00080913D0290913E028F7E90933E028093C5
:1057B0003D0280913D0290913E02877F90933E0290
:1057C00080933D02CF91DF910895CF92DF92EF92C7
:1057D000FF920F931F93DF93CF93CDB7DEB72C9734
:1057E0000FB6F894DEBF0FBECDBF80913D02909101
:1057F0003E0284709070009719F00E94F53A62C3DF
:1058000080913D0290913E0280709072009719F055
:105810000E948B3B57C380913D0290913E0280785D
:105820009070009709F46BC082E090E060E070E057
:105830000E94072180914202833409F04FC0809179
:10584000470290914802A0914902B0914A02BC01DE
:10585000CD010E944701DC01CB0189879A87AB8784
:10586000BC87188618C089859A85AB85BC852AE0D7
:1058700030E040E050E0BC01CD010E94863CDA01FE
:10588000C90189879A87AB87BC8788858F5F88879E
:1058900080E20E94602089859A85AB85BC8500974F
:1058A000A105B10501F78885282F30E080E190E05F
:1058B000AC01421B530B9A0182E090E0B9010E94B7
:1058C00007218091470290914802A0914902B0912E
:1058D0004A02BC01CD010E943021F4C282E892E06C
:1058E0000E941F2080913D0290913E029E7F9093E6
:1058F0003E0280933D028FE080932802E3C21F8224
:105900001EC18F81992787FD9095FC01E958FD4FB5
:105910008081883559F08F81992787FD9095FC010A
:10592000E958FD4F80818F3209F006C18F81992798
:1059300087FD9095FC01E958FD4F80818835C9F5B8
:105940008F81C82EDD24C7FCD0948F81992787FDD5
:105950009095880F991F880F991FFC01E95BFD4FF7
:10596000E080F180028113818F81992787FD9095D6
:105970000196880F991F880F991FFC01E95BFD4F65
:105980002081318142815381C801B7010E941D03EA
:10599000DC01CB019C01AD01C601880F991F880F66
:1059A000991FFC01E95BFD4F2083318342835383C0
:1059B0005EC08F81992787FD90950196880F991F6A
:1059C000880F991FFC01E95BFD4F80819181A281C5
:1059D000B381BC01CD0120E030E040E050E00E9406
:1059E000C304882361F40E94F53A80913D029091AE
:1059F0003E02906490933E0280933D02A4C08F814A
:105A0000C82EDD24C7FCD0948F81992787FD9095FF
:105A1000880F991F880F991FFC01E95BFD4FE080FB
:105A2000F180028113818F81992787FD90950196DE
:105A3000880F991F880F991FFC01E95BFD4F20819A
:105A4000318142815381C801B7010E941704DC01F2
:105A5000CB019C01AD01C601880F991F880F991FCA
:105A6000FC01E95BFD4F20833183428353838F81A7
:105A7000992787FD90950196880F991F880F991F88
:105A8000FC01E95BFD4F80E090E0A0E0B0E08083A6
:105A90009183A283B3838F81992787FD9095FC0121
:105AA000E958FD4F10828F818F5F8E8324C08E81D5
:105AB000682F772767FD70958E81992787FD9095D0
:105AC0000196880F991F880F991FFC01E95BFD4F14
:105AD0002081318142815381CB01880F991F880F2A
